:100AFE00446179200020526F6C6C20007072657317
:100B0E00656E7400616273656E740043616C63752B
:100B1E006C6174696E670041746E206F6620737429
:100B2E00646E7420002F3600576974682073686FE6
:080B3E007274616765002C0070
:040C63000263000028
:090B4600120AAED2817F057E0087
:100B4F00E4FDFCC3ED9FEE6480F8EC6480985015D3
:100B5F00E4FBFA0BBB00010AEB64644A70F50DBDB0
:050B6F0000010C80DE16
:010B7400225E
:100AAE00EF30E004D2A08002C2A0EF30E104D2A168
:100ABE008002C2A1EF30E204D2A28002C2A2EF30C5
:100ACE00E304D2A38002C2A3EF30E404D2A48002D6
:100ADE00C2A4EF30E504D2A58002C2A5EF30E60431
:100AEE00D2A68002C2A6EF30E703D2A722C2A72267
:070C38007E00120B4F7F301C
:080C3F00C280120B46C28122A3
:050C54007F01020C3FCE
:100C1D008F5EA905E55EB40105E924808008E55ED7
:0B0C2D00B40207E924C0FF120C3F22B4
:100BCD00E4FF120AAEC2807FC8120C387F32120CBD
:100BDD00387F6E120C387F38120C3F7F0C120C3F91
:0A0BED007F01120C3F7F06020C3F4F
:050C4700E5092431FF66
:080C4C00D280120B46C2812286
:060BA2008B5E8A5F896092
:100BA800E4F561F562AB5EAA5FA960856282856142
:100BB80083120B75FF600D120C4C0562E56270E53F
:040BC800056180E162
:010BCC002206
:050C59007F1C020C3FAE
:050C5E007F18020C3FAD
:100BF700E4FDFCC3ED9FEE6480F8EC64809850152B
:100C0700E4FBFA0BBB00010AEB64644A70F50DBD07
:050C170000010C80DE6D
:010C1C0022B5
:10080000120BCDD290D291D2927508007509017564
:100810000E00750F01E4F50AF50BE4F508F509E49F
:10082000F50EF50F7D027F01120C1D7BFF7A0A7910
:10083000FE120BA2E50B2431FF120C4C7BFF7A0B4E
:100840007903120BA2120C47E4FD7F02120C1D7BF0
:10085000FF7A0B790A120BA27D0A7F02120C1D7B14
:10086000FF7A0B7912120BA2209016E50975F00C95
:10087000A42416F8E50B25E028F876000876018018
:1008800036209215E50975F00CA42416F8E50B2521
:10089000E028F8E4F608F6801EE5096415450870BE
:1008A00005120C548011750E00750F01E50F6401DF
:1008B000450E700302081F0509E50970020508C30B
:1008C0009405E50864809480500302081F050BE539
:1008D0000B7002050AC39406E50A648094805003F5
:1008E00002081A120C547D017F01120C1D7BFF7A45
:1008F0000B7919120BA27F887E13120BF7E4F50A0D
:10090000F50BE50B25E02452F8E4F608F6050BE5B7
:100910000B7002050A6405450A70E7E4F50AF50B59
:10092000E4F508F509AF0BEF75F00CA42416F8E513
:100930000925E028F8E6FC08E664014C700DEF2577
:10094000E02452F80806E6187001060509E509706A
:100950000205086406450870CC050BE50B7002051E
:100960000A6405450A70B9120C54E4F508F509E467
:10097000FD7F01120C1D7BFF7A0B7925120BA21251
:100980000C47E4FD7F02120C1DE50925E02452F816
:1009900008E62430FF120C4C7BFF7A0B7933120BE4
:1009A000A27F887E13120BF70509E509700205087E
:1009B000C39405E5086480948040B4120C54E4FDAF
:1009C0007F01120C1D7BFF7A0B7936120BA27D0181
:1009D0007F02120C1DE4F508F509E50925E0245213
:1009E000F8E6FE08E6C39405EE6480948050191280
:1009F0000C47C3E5099404E5086480948050097BA2
:100A0000FF7A0B7944120BA20509E509700205086B
:100A1000C39405E5086480948040BF7F107E270260
:020A20000BF7D2
:03000000020A22CF
:0C0A2200787FE4F6D8FD758165020A6952
:100B7500BB010CE58229F582E5833AF583E0225035
:100B850006E92582F8E622BBFE06E92582F8E2227F
:0D0B9500E58229F582E5833AF583E4932299
:100A2E00020800E493A3F8E493A34003F68001F2D6
:100A3E0008DFF48029E493A3F85407240CC8C333C9
:100A4E00C4540F4420C8834004F456800146F6DF98
:100A5E00E4800B0102040810204080900C63E47EB9
:100A6E00019360BCA3FF543F30E509541FFEE4938D
:100A7E00A360010ECF54C025E060A840B8E493A354
:100A8E00FAE493A3F8E493A3C8C582C8CAC583CA7F
:100A9E00F0A3C8C582C8CAC583CADFE9DEE780BE37
:010C6700008C
:00000001FF
