:100AFF00446179200020526F6C6C20007072657316
:100B0F00656E7400616273656E740043616C63752A
:100B1F006C6174696E670041746E206F6620737428
:100B2F00646E7420002F3600576974682073686FE5
:080B3F007274616765002C006F
:040C64000263000027
:090B4700120AAFD2817F057E0085
:100B5000E4FDFCC3ED9FEE6480F8EC6480985015D2
:100B6000E4FBFA0BBB00010AEB64644A70F50DBDAF
:050B700000010C80DE15
:010B7500225D
:100AAF00EF30E004D2A08002C2A0EF30E104D2A167
:100ABF008002C2A1EF30E204D2A28002C2A2EF30C4
:100ACF00E304D2A38002C2A3EF30E404D2A48002D5
:100ADF00C2A4EF30E504D2A58002C2A5EF30E60430
:100AEF00D2A68002C2A6EF30E703D2A722C2A72266
:070C39007E00120B507F301A
:080C4000C280120B47C28122A1
:050C55007F01020C40CC
:100C1E008F5EA905E55EB40105E924808008E55ED6
:0B0C2E00B40207E924C0FF120C4022B2
:100BCE00E4FF120AAFC2807FC8120C397F32120CBA
:100BDE00397F6E120C397F38120C407F0C120C408C
:0A0BEE007F01120C407F06020C404C
:050C4800E5092431FF65
:080C4D00D280120B47C2812284
:060BA3008B5E8A5F896091
:100BA900E4F561F562AB5EAA5FA960856282856141
:100BB90083120B76FF600D120C4D0562E56270E53C
:040BC900056180E161
:010BCD002205
:050C5A007F1C020C40AC
:050C5F007F18020C40AB
:100BF800E4FDFCC3ED9FEE6480F8EC64809850152A
:100C0800E4FBFA0BBB00010AEB64644A70F50DBD06
:050C180000010C80DE6C
:010C1D0022B4
:10080000120BCED290D291D2927508007509017563
:100810000E00750F01E4F50AF50BE4F508F509E49F
:10082000F50EF50F7D027F01120C1E7BFF7A0A790F
:10083000FF120BA3E50B2431FF120C4D7BFF7A0B4B
:100840007904120BA3120C48E4FD7F02120C1E7BEC
:10085000FF7A0B790B120BA37D0A7F02120C1E7B11
:10086000FF7A0B7913120BA320901D7FF47E0112E7
:100870000BF8E50975F00CA42416F8E50B25E02823
:10088000F87600087601803020921C7FF47E0112F9
:100890000BF8E50975F00CA42416F8E50B25E02803
:1008A000F8E4F608F68011750E00750F01E50F6487
:1008B00001450E700302081F0509E50970020508CD
:1008C000C39405E50864809480500302081F050B5B
:1008D000E50B7002050AC39406E50A648094805013
:1008E0000302081A120C557D017F01120C1E7BFFBA
:1008F0007A0B791A120BA37F887E13120BF8E4F59A
:100900000AF50BE50B25E02452F8E4F608F6050B92
:10091000E50B7002050A6405450A70E7E4F50AF57F
:100920000BE4F508F509AF0BEF75F00CA42416F8ED
:10093000E50925E028F8E6FC08E664014C700DEFB7
:1009400025E02452F80806E6187001060509E509B5
:10095000700205086406450870CC050BE50B7002B3
:10096000050A6405450A70B9120C55E4F508F50945
:10097000E4FD7F01120C1E7BFF7A0B7926120BA37C
:10098000120C48E4FD7F02120C1EE50925E02452FA
:10099000F808E62430FF120C4D7BFF7A0B793412F5
:1009A0000BA37F887E13120BF80509E50970020579
:1009B00008C39405E5086480948040B4120C55E4A3
:1009C000FD7F01120C1E7BFF7A0B7937120BA37D82
:1009D000017F02120C1EE4F508F509E50925E02463
:1009E00052F8E6FE08E6C39405EE64809480501940
:1009F000120C48C3E5099404E5086480948050090A
:100A00007BFF7A0B7945120BA30509E509700205F6
:100A100008C39405E5086480948040BF7F107E275A
:030A2000020BF8CE
:03000000020A23CE
:0C0A2300787FE4F6D8FD758165020A6A50
:100B7600BB010CE58229F582E5833AF583E0225034
:100B860006E92582F8E622BBFE06E92582F8E2227E
:0D0B9600E58229F582E5833AF583E4932298
:100A2F00020800E493A3F8E493A34003F68001F2D5
:100A3F0008DFF48029E493A3F85407240CC8C333C8
:100A4F00C4540F4420C8834004F456800146F6DF97
:100A5F00E4800B0102040810204080900C64E47EB7
:100A6F00019360BCA3FF543F30E509541FFEE4938C
:100A7F00A360010ECF54C025E060A840B8E493A353
:100A8F00FAE493A3F8E493A3C8C582C8CAC583CA7E
:100A9F00F0A3C8C582C8CAC583CADFE9DEE780BE36
:010C6800008B
:00000001FF
