:100A8700417474656E64616E63650020204D616E0C
:050A97006167657200BB
:09094200120800D2817F057E003D
:10094B00E4FDFCC3ED9FEE6480F8EC6480985015D9
:10095B00E4FBFA0BBB00010AEB64644A70F50DBDB6
:05096B0000010C80DE1C
:010970002264
:10080000EF30E004D2A08002C2A0EF30E104D2A118
:100810008002C2A1EF30E204D2A28002C2A2EF3075
:10082000E304D2A38002C2A3EF30E404D2A4800286
:10083000C2A4EF30E504D2A58002C2A5EF30E604E1
:10084000D2A68002C2A6EF30E703D2A722C2A72217
:070AAE007E0012094B7F30AE
:080AB500C280120942C2812235
:050AEF007F01020AB5C1
:100A6C008F0AA905E50AB40105E924808008E50A86
:0B0A7C00B40207E924C0FF120AB522F3
:1009F400E4FF120800C2807FC8120AAE7F32120AD6
:100A0400AE7F6E120AAE7F38120AB57F0C120AB599
:0A0A14007F01120AB57F06020AB541
:080AE700D280120942C28122F3
:060911007BFF7A0A7987E2
:060917008B0A8A0B890C1B
:10091D00E4F50DF50EAB0AAA0BA90C850E82850D1B
:10092D0083120971FF600D120AE7050EE50E70E5E1
:04093D00050D80E143
:010941002293
:050AF4007F1C020AB5A1
:050AF9007F18020AB5A0
:100A1E00EF30E004D2A48002C2A4EF30E104D2A5EC
:100A2E008002C2A5EF30E204D2A68002C2A6EF3049
:080A3E00E303D2A722C2A722A4
:070A9C007E0012094B7F03ED
:0B0AA300C280120A1E120945C2812207
:0A0AC900E4FF120AA37F01020AA352
:04089A008F14A90509
:10089E00E514B40112E92480FFF5157804A2E713DC
:1008AE00D8FBF516EF8016E514B4021FE92480F587
:1008BE00157804A2E713D8FBF516E924C0540FF5FA
:0B08CE0017AF16120AA3AF17120AA3FF
:0108D90022FC
:1008DA00E4FF120A1E7FC8120A9C7F32120A9C7F0A
:1008EA006E120A9C7F02120AA37F02120AA37F08D1
:1008FA00120AA3E4FF120AA37F0C120AA3E4FF124E
:07090A000AA37F06020AA305
:02099E00AE07A2
:1009A000EE540FF9EE54F0FFD2807804A2E713D88A
:1009B000FBFF120A1E120945C281AF01120A1ED2A4
:0809C000817F0512094BC28181
:0109C800220C
:0609C9008B0F8A1089115A
:1009CF00E4F512F513AB0FAA10A911851382851246
:1009DF0083120971FF600D12099E0513E51370E56F
:0409EF00051280E18C
:0109F30022E1
:0A0AD3007F01120AA37F0C020AA3A0
:0A0ADD007F01120AA37F08020AA39A
:100A4600E4FDFCC3ED9FEE6480F8EC6480985015DD
:100A5600E4FBFA0BBB00010AEB64644A70F50DBDBA
:050A660000010C80DE20
:010A6B002268
:100850001209F47D017F01120A6C1209117D017FDA
:1008600002120A6C7BFF7A0A79921209177FE87EDE
:1008700003120A46120AEF7FE87E03120A467D0140
:100880007F01120A6C1209117D017F02120A6C7B32
:0A089000FF7A0A799212091780B965
:03000000020ABD34
:0C0ABD00787FE4F6D8FD75811702085020
:10097100BB010CE58229F582E5833AF583E022503B
:1009810006E92582F8E622BBFE06E92582F8E22285
:0D099100E58229F582E5833AF583E493229F
:00000001FF
