:0F0A1B00417474656E64616E6365206F662000C0
:040A4100020F0000A0
:0909450012088CD2817F057E00AE
:10094E00E4FDFCC3ED9FEE6480F8EC6480985015D6
:10095E00E4FBFA0BBB00010AEB64644A70F50DBDB3
:05096E0000010C80DE19
:010973002261
:10088C00EF30E004D2A08002C2A0EF30E104D2A18C
:10089C008002C2A1EF30E204D2A28002C2A2EF30E9
:1008AC00E304D2A38002C2A3EF30E404D2A48002FA
:1008BC00C2A4EF30E504D2A58002C2A5EF30E60455
:1008CC00D2A68002C2A6EF30E703D2A722C2A7228B
:070A0C007E0012094E7F304D
:080A1300C280120945C28122D4
:050A32007F01020A1320
:1009F1008F0AA905E50AB40105E924808008E50A02
:0B0A0100B40207E924C0FF120A132210
:1009A100E4FF12088CC2807FC8120A0C7F32120A3F
:1009B1000C7F6E120A0C7F38120A137F0C120A1375
:0A09C1007F01120A137F06020A13D9
:080A2A00D280120945C28122AD
:060914007BFF7A0A791B4B
:06091A008B0A8A0B890C18
:10092000E4F50DF50EAB0AAA0BA90C850E82850D18
:1009300083120974FF600D120A2A050EE50E70E598
:04094000050D80E140
:010944002290
:050A37007F1C020A1300
:050A3C007F18020A13FF
:1009CB00E4FDFCC3ED9FEE6480F8EC648098501559
:1009DB00E4FBFA0BBB00010AEB64644A70F50DBD36
:0509EB0000010C80DE9C
:0109F00022E4
:1008DC001209A1D290D291D292E4FD7F011209F1BA
:1008EC00120914751130AF11120A2A2092EB7431CF
:1008FC002511F511120A32E4FD7F011209F11209DA
:08090C0014AF11120A2A80D178
:03000000020800F3
:0C080000787FE4F6D8FD758111020847EE
:10097400BB010CE58229F582E5833AF583E0225038
:1009840006E92582F8E622BBFE06E92582F8E22282
:0D099400E58229F582E5833AF583E493229C
:10080C000208DCE493A3F8E493A34003F68001F21E
:10081C0008DFF48029E493A3F85407240CC8C333ED
:10082C00C4540F4420C8834004F456800146F6DFBC
:10083C00E4800B0102040810204080900A41E47E01
:10084C00019360BCA3FF543F30E509541FFEE493B1
:10085C00A360010ECF54C025E060A840B8E493A378
:10086C00FAE493A3F8E493A3C8C582C8CAC583CAA3
:10087C00F0A3C8C582C8CAC583CADFE9DEE780BE5B
:010A450000B0
:00000001FF
