:100A7C00526F6C6C206E6F200070726573656E74B3
:080A8C0000616273656E7400E5
:040ABA0002750000C1
:09098A0012093AD2817F057E00BA
:10099300E4FDFCC3ED9FEE6480F8EC648098501591
:1009A300E4FBFA0BBB00010AEB64644A70F50DBD6E
:0509B30000010C80DED4
:0109B800221C
:10093A00EF30E004D2A08002C2A0EF30E104D2A1DD
:10094A008002C2A1EF30E204D2A28002C2A2EF303A
:10095A00E304D2A38002C2A3EF30E404D2A480024B
:10096A00C2A4EF30E504D2A58002C2A5EF30E604A6
:10097A00D2A68002C2A6EF30E703D2A722C2A722DC
:070A94007E001209937F3080
:080A9B00C28012098AC2812207
:050AAB007F01020A9B1F
:100A61008F70A905E570B40105E924808008E5705F
:0B0A7100B40207E924C0FF120A9B2218
:100A1100E4FF12093AC2807FC8120A947F32120A97
:100A2100947F6E120A947F38120A9B7F0C120A9BE4
:0A0A31007F01120A9B7F06020A9B58
:080AA300D28012098AC28122EF
:0609E6008B708A7189721A
:1009EC00E4F573F574AB70AA71A972857482857382
:1009FC00831209B9FF600D120AA30574E57470E542
:040A0C00057380E10D
:010A100022C3
:050AB0007F1C020A9BFF
:050AB5007F18020A9BFE
:100A3B00E4FDFCC3ED9FEE6480F8EC6480985015E8
:100A4B00E4FBFA0BBB00010AEB64644A70F50DBDC5
:050A5B0000010C80DE2B
:010A60002273
:10080000120A11D290D291D2927508007509017521
:100810000A00750B01E4F50AF50B7D047F01120A4D
:10082000617BFF7A0A797C1209E6E5092430FF1220
:100830000AA3E4FD7F02120A617BFF7A0A7985121E
:1008400009E67D0A7F02120A617BFF7A0A798D121E
:1008500009E6209018E50975F00AA4240EF8760040
:100860000876010509E50970020508802F20921716
:10087000E50975F00AA4240EF8E4F608F60509E582
:1008800009700205088015209112120AAB7D017FC4
:1008900001120A61E5192430FF120AA3750A0075D6
:0D08A0000B01E50B6401450A700302081509
:0108AD002228
:030000000208AE45
:0C08AE00787FE4F6D8FD7581770208F52C
:1009B900BB010CE58229F582E5833AF583E02250F3
:1009C90006E92582F8E622BBFE06E92582F8E2223D
:0D09D900E58229F582E5833AF583E4932257
:1008BA00020800E493A3F8E493A34003F68001F24C
:1008CA0008DFF48029E493A3F85407240CC8C3333F
:1008DA00C4540F4420C8834004F456800146F6DF0E
:1008EA00E4800B0102040810204080900ABAE47EDA
:1008FA00019360BCA3FF543F30E509541FFEE49303
:10090A00A360010ECF54C025E060A840B8E493A3C9
:10091A00FAE493A3F8E493A3C8C582C8CAC583CAF4
:10092A00F0A3C8C582C8CAC583CADFE9DEE780BEAC
:010ABE000037
:00000001FF
